:020000040800F2
:10000000A85B00201902000825020008250200084C
:100010002502000825020008250200080000000053
:1000200000000000000000000000000025020008A1
:10003000250200080000000025020008ED1000085D
:1000400025020008250200082502000825020008F4
:1000500025020008250200082502000825020008E4
:100060002502000800000000000000000000000061
:1000700025020008000000002502000825020008F3
:1000800025020008250200082502000825020008B4
:1000900025020008250200082502000825020008A4
:1000A0002502000825020008250200082502000894
:1000B0002502000825020008250200082502000884
:1000C0002502000825020008250200082502000874
:1000D0002502000825020008250200082502000864
:1000E0002502000825020008250200082502000854
:1000F00079100008A9100008250200082502000850
:100100002502000825020008250200082502000833
:100110002502000825020008250200082502000823
:100120002502000825020008250200082502000813
:100130002502000825020008250200082502000803
:1001400025020008250200082502000825020008F3
:1001500025020008250200082502000825020008E3
:10016000000000000000000000000000000000008F
:1001700025020008250200082502000825020008C3
:1001800025020008250200082502000825020008B3
:1001900025020008250200082502000825020008A3
:1001A000250200084914000825020008250200085D
:1001B000250200082502000825020008AD140008E9
:1001C0002502000825020008250200082502000873
:1001D0002502000825020008250200080000000092
:1001E0002502000825020008250200082502000853
:1001F00025020008000000002502000800000000A1
:10020000DFF810D000F01CFD00F094F90048004722
:1002100095930008A85B0020DFF80CD003488047C6
:1002200003480047FEE70000A85B00202D140008EB
:10023000010200089FED1A1AF5EE000A40EE010ACD
:10024000BDEEE00AF5EEC00A10EE100AF1EE10FA6B
:1002500038BF401E00EE100A1349F7EE001AB8EE40
:10026000C00A30EEC00ADFED0F0A20EE200AFCEED5
:10027000C00A10EE900AC0F3080000EE900A01EBED
:100280008000F8EE600A90ED011A70EE600A90EDC1
:10029000000A71EEE01A21EE800A00EE810A704732
:1002A00083F9223E00000044D4980008DFED1D0AC7
:1002B000B5EEC00A60EE200ABDEEE01A11EE100A9B
:1002C000F1EE10FA38BF401E00EE100AB8EEC00A78
:1002D00030EEC00ADFED140A20EE200AB4EEE00A88
:1002E000F1EE10FAA8BF30EE600AFCEEC00A0F492A
:1002F000F7EE001A10EE900AC0F3080000EE900A24
:1003000001EB8000F8EE600A90ED011A70EE600AD1
:1003100090ED000A71EEE01A21EE800A00EE810AEB
:100320007047000083F9223E00000044D498000882
:1003300010B5431A934209D28318881803E010F8C5
:10034000011D03F8011D521EF9D210BD40EA010340
:100350009B0703D009E008C9121F08C0042AFAD27B
:1003600003E011F8013B00F8013B521EF9D210BD29
:10037000D2B201E000F8012B491EFBD270470022E7
:10038000F6E710B513460A4604461946FFF7F0FF94
:10039000204610BD10B5002200E0521C835C8C5C2E
:1003A000A34201D1002BF8D1D8B2E1B2401A10BD5E
:1003B0000FB400B58DB010A909900B9000914FF0CB
:1003C000FF300A9000200C900548069005480790E1
:1003D0006A4609A80F9900F0A9FA0DB05DF814FB60
:1003E00049090008670900082DE9FF5F1D464FF025
:1003F000FF3BD5E9014691465F464FF00008A969E9
:100400007F1C01988847296A824688470028F6D1D0
:10041000BAF1FF3F0CD024F4C064002E19DD600651
:1004200014D5BAF12B0F09D0BAF12D0F0ED103E07C
:10043000584604B0BDE8F09F44F48064A9697F1C6D
:1004400001988847761E8246002E02DDBAF1300FF1
:1004500003D0B9F1000F26D032E0A969761E44F42A
:1004600000747F1C019888478246002E05DDBAF192
:10047000780F06D0BAF1580F03D0B9F1000F10D0A1
:100480001EE0B9F1000F02D0B9F1100F18D1A9691F
:10049000761E24F400747F1C019888478246102041
:1004A00002E0082000E00A20814609E008FB090874
:1004B000A969761E44F400747F1C0198884782461F
:1004C000002E05DD4946504600F01CFA0028EDDA02
:1004D000E96901988847A00502D46FF00100A8E7F8
:1004E000E00725D1600613D5600502D5C8F10000EC
:1004F00000E0404629680A1D2A600968220501D5E6
:10050000087015E0220701D5088011E008600FE0AF
:100510002868011D29600068210502D580F8008047
:1005200006E0210702D5A0F8008001E0C0F80080B5
:1005300038467EE770B5054C054D03E02068204441
:100540008047241DAC42F9D170BD0000C8AA000844
:10055000D4AA00082DE9FE4F804681EA0300C00FAF
:100560000C46009021F0004123F00045B8EB02005A
:10057000A94105D24046214690461C460B460246FC
:1005800023F00040104347D0270DC7F30A00C3F300
:100590000A510290401A019040286BDAC3F313000D
:1005A00040F4801B0098924620B10023D2EB030A4E
:1005B00063EB0B0B01985946C0F14002504600F026
:1005C00080F906460D4650465946019A00F088F9D2
:1005D00010EB08006141002487EA115284EAE773B6
:1005E0001A4340D0009A62B3019A012A4FEA075297
:1005F00015DC001B61EB02014FF0004202EA0752DA
:10060000CDE90042001C41F5801132462B4600F036
:100610000CFA03B0BDE8F08F40462146F9E7001B15
:1006200061EB0201001C41F5801300185B412018AA
:10063000A2F5001747EB030140EAD570B6196D41EA
:1006400011E06D084FEA360645EAC0754FEA0752D9
:10065000001B61EB0201001C41F5801149084FEAC3
:1006600030000019514132462B4603B0BDE8F04F2F
:1006700000F0CCB90098012240000023D0EB020228
:1006800063EBE073009821464FEAE074B8EB00009A
:1006900061EB0401E9E783F000435BE781F000418F
:1006A00058E72DE9FE4F81EA030404F0004421F0ED
:1006B000004100944FF0000B23F0004350EA010486
:1006C0005ED052EA03045BD0C3F30A54C1F30A5567
:1006D0002C44A4F2F3340194A0FB0254C1F313019F
:1006E00041F48011C3F3130343F4801301FB02446C
:1006F00000FB034E840A970A44EA815447EA835771
:10070000A4FB076802958D0A05FB07854FEA932C29
:1007100004FB0C542705029D4FEA065847EA16379A
:10072000B5EB08056EEB070C870E920E47EA8117B2
:1007300042EA8312A7FB0201B6EB0B0164EB000453
:100740002B0D43EA0C335E1844EB1C50DA4651463D
:10075000E7FB0201C5F313044FEA0B3343EA1453DA
:100760004FEA0432019C43EA0603A4F10C0402940C
:10077000009CCDE900B400F058F903B0BDE8F08F5B
:1007800000200146F9E70EB540F233410291002105
:10079000CDE900110A460B4600F047F903B000BD51
:1007A00000F0004230F000400AD0C10D01F5607148
:1007B000C0F3160042EA0151C208400711437047D6
:1007C000002001467047000030B5041E71F100049E
:1007D00004DB4FF00044404264EB0101141E73F14E
:1007E000000405DB1C464FF00043524263EB040358
:1007F000994208BF904230BD01F0004330B421F06F
:10080000004150EA010206D00A0DA2F56072C1F360
:100810001301002A02DC30BC00207047440F44EA78
:10082000C104C100E01830BC00EBC25000F0B7B802
:1008300000F0D0B930B50B4601460020202201243B
:1008400009E021FA02F59D4205D303FA02F5491B9E
:1008500004FA02F52844151EA2F10102F1DC30BDB4
:100860002DE9F05F0546002092469B4688460646E5
:10087000814640241BE0284641464746224600F078
:10088000F1F953465A46C01A914110D31146184601
:10089000224600F016F82D1A67EB01084F46224653
:1008A0000120002100F00DF817EB00094E41201E39
:1008B000A4F10104DFDC484631462A464346BDE840
:1008C000F09F202A04DB203A00FA02F10020704752
:1008D0009140C2F1200320FA03F31943904070477E
:1008E000202A06DBCB17203A41FA02F043EAE073F4
:1008F00006E041FA02F3D040C2F1200291400843E1
:10090000194670473A2800D2303820F02002412A98
:1009100001D3A2F13700884201D34FF0FF30704776
:10092000026811441378016018467047D160044989
:1009300051610449116200211161114600F0A8B90A
:1009400021090008850C0008426842B1016811F8CD
:10095000013B23B1521EC0E9001218467047012125
:10096000C160881E704742685AB1C368016843B9C4
:1009700083688B4205D0491E521CC0E9001200203A
:1009800070474FF0FF307047034870470248001D22
:10099000011F8860001D704704090020704700296E
:1009A000A8BF7047401C490008BF20F001007047F5
:1009B00010B4B0FA80FC00FA0CF050EA010404BF55
:1009C00010BC704749B1CCF1200421FA04F411FAAB
:1009D0000CF118BF012121430843A3EB0C01CB1DEF
:1009E0004FEA00614FEA102042BF002010BC704760
:1009F00000EBC35010440029A4BF10BC7047401C3A
:100A0000490008BF20F0010010BC704710B5141E4B
:100A100073F1000408DA401C41F1000192185B41B7
:100A20001A4301D120F0010010BD2DE9F04D92468E
:100A30009B4611B1B1FA81F202E0B0FA80F22032A5
:100A40009046FFF73EFF04460F4640EA0A0041EA9F
:100A50000B0153465A46084313D0114653EA01008E
:100A600019D0C8F14002504600F0FCF805460E4689
:100A7000504659464246FFF724FF084305D001205F
:100A800004E020463946BDE8F08D0020054346EAE3
:100A9000E0762C4337430A986305E40AA0EB08008C
:100AA0000022FD0A44EA47540A3002D500200146DC
:100AB000E9E7010510196941DDE9084500196941B7
:100AC000BDE8F04DA2E72DE9F04D81EA030404F002
:100AD000004B21F0004514464FF0000A23F000417E
:100AE00050EA050220D054EA01021DD0C5F30A578E
:100AF0000246C5F31303C1F31300C1F30A5640F4D1
:100B0000801543F48013A7EB0608101BD64608F2A5
:100B1000FD3873EB050002D308F1010801E09218DB
:100B20005B41B8F1000F03DA00200146BDE8F08D0B
:100B300000204FF48011064684460EE0171B73EB2D
:100B4000050705D3121B63EB050306434CEA010CB2
:100B500049084FEA300092185B4150EA0107EDD195
:100B600052EA030012D082EA040083EA0501084336
:100B700005D0101BAB4106D20122002306E0002263
:100B80004FF0004302E06FF0010253101AEB060031
:100B90004CEB085110EB0A0041EB0B01BDE8F04DA6
:100BA000FFF734BFC1F30A52C1F3130140F2FF3320
:100BB00041F480119A4202DA00200146704740F267
:100BC00033439A42A2F2334202DC524200F04AB866
:100BD000FFF777BE10B500F00EF8016919B10022D9
:100BE0000261884701E080688047AFF30080000021
:100BF00010B5AFF3008070B5FFF7C8FE0468054676
:100C0000A4B9202008F066FC040011D00949002096
:100C10002C60C4E900010849A16020732061606173
:100C20000649A06109B100F0C9F9E061204670BD34
:100C3000AFF3008000000000F10B0008000000008E
:100C4000064C074D06E0E06840F0010394E8070019
:100C500098471034AC42F6D3FFF7D6FAA8AA00089A
:100C6000C8AA0008202A04DB203A21FA02F0002159
:100C7000704721FA02F3D040C2F1200291400843AC
:100C800019467047C0B24FF4F05100F0B5B90000FA
:100C90002DE9F34F8BB04FF0000801F10C000C462A
:100CA0004FF0010B46460DF1080A019062690121DF
:100CB00001989047051E2DD0252D2CD0216A8847FC
:100CC000C0B16269012101989047216A88470028D4
:100CD000F7D1411E62690198904700E0761CA16936
:100CE0000B988847216A88470028F7D1E1690B985B
:100CF0008847DBE7A1690B9888470746A84201D1DE
:100D0000761CD3E7E1690B9888477F1C02D1B8F1C4
:100D1000000F6FD046E1002762693D4639460198D1
:100D200090472A2804D16269012101989047012542
:100D3000DFF884926269012101989047A0F13001A7
:100D40000A290AD24F45E5DC07EB870100EB410792
:100D5000303FDFD445F01005ECE7E90601D46FF031
:100D600000476C280AD04C2814D0682815D06A286F
:100D70000DD074281CD07A281AD01DE06269012198
:100D8000019890476C2802D045F0040514E045F026
:100D900002050DE045F020050AE062690121019895
:100DA0009047682802D045F0080505E045F4006545
:100DB0006269012101989047C4E9015765283DD037
:100DC00019DC58287AD00CDC452837D004DC2528DB
:100DD00026D0412831D131E046282FD047282CD1C8
:100DE0002CE05B2877D0612828D063287CD0642849
:100DF00023D15AE0D0E06F2848D008DC66281DD007
:100E000067281BD0692821D06E2816D127E07028CA
:100E100045D0732868D0752847D078280DD14DE08B
:100E2000A1690B988847054625283FF469AFE16919
:100E30000B9888476D1C3FF46AAFB3E023466A46BF
:100E40006FF001000B99AFF300809EE045F0400089
:100E50006060A80723464FF0000236D43EE0E80762
:100E60007FF447AF2068011D21600068290501D586
:100E700006701BE7290701D5068017E7A90703D5E8
:100E8000F117C0E9006111E706600FE745F0400087
:100E90006060A80723464FF0080216D41EE040F613
:100EA0000E0125EA0100606016E045F04000606038
:100EB000A80723464FF00A0207D40FE045F0400090
:100EC0006060A80708D5234610226FF001000B9937
:100ED000AFF3008059E007E0234610226FF00100D5
:100EE0000B99FFF781FA50E04FF000094F464B464F
:100EF000632802D05B2806D040E0E80601D4012038
:100F0000A06001273AE062690121019890475E28BC
:100F100005D14FF00109626949460198904721695E
:100F200039B900210A46534643F82120491C0829B3
:100F3000FADBB0B3216969B9C11700EBD162531173
:100F40000AEB830122F01F02821A01200B689040F5
:100F500003430B6062690121019890475D28E8D145
:100F6000B9F1000F09D00020514651F82020D2439A
:100F700041F82020401C0828F7DB02AB22460097EE
:100F80006FF001000B99AFF3008000280CDA401CD1
:100F900008D1BBF1000F05D04FF0FF300DB0BDE818
:100FA000F08FFFE74046F9E7E90701D108F10108B2
:100FB00006444FF0000B79E6CCCCCC0C10B5882061
:100FC00008F088FA002801D00021017010BD8029A6
:100FD00002D808B1017809B100207047012100F85A
:100FE000081B704718B100F10802914201D000209F
:100FF00070470021017070477F2801D9002208E066
:10100000064A02EB5002C007127800D1120902F022
:101010000F0201209040084070470000D8A000084F
:1010200070B58C1810F8015B15F0070301D110F8AA
:10103000013B2A1106D110F8012B03E010F8016BD7
:1010400001F8016B5B1EF9D12B0705D40023521E5A
:101050000DD401F8013BFAE710F8013BCB1A921CC2
:1010600003E013F8015B01F8015B521EF9D5A142C0
:10107000D8D3002070BD000000B59DB034220849CF
:101080006846FFF755F9402205490C390DA8FFF7CE
:101090004FF904480DA90EC907F0CAFB1DB000BDE9
:1010A0001C000020441E002010B50A488079042846
:1010B00008D10848C079012804D10749074802F03F
:1010C000D9FC05E000BF01200549086100BF00BF51
:1010D00010BD00004C1F0020301E00200800002022
:1010E00000C1004000487047001BB70008480022BC
:1010F000084B0168591A72EB020002DA0020044919
:10110000086003480068401C0149086070470000FF
:1011100004010020009C57FC10B57548006800F0E1
:10112000010070B97248001D006840F0010071496B
:10113000C1F8040200BF6E48006800F001000028FA
:10114000F9D06D48006800F4007058B16A48083062
:10115000006840F4007068490831086041F64C505E
:1011600008F000F96548006840F400206349086011
:1011700040F6C41008F0F6F860480068604908407E
:101180005E4908605D481038006800F0300060B3C8
:101190005A48103800685B490840584910390860BF
:1011A000FFF7A0FF5849B0FBF1F0401E534910393A
:1011B000096841EA00405149103908604F48083039
:1011C000006820F001004D49083108604B48006874
:1011D00020F400304949086000BF4848001F0068FB
:1011E00000F46070B0F5607FF7D14448006840F0CB
:1011F0000100424908600846006840F0100008609D
:101200004248091D0860081F006840F04000091F9F
:1012100008600846006820F0100008600846006872
:1012200040F48020086000BF3448001F006800F0D0
:1012300004000028F8D03148006820F001002F4950
:10124000086000BF2D48001F006800F00100002862
:10125000F8D14FF001102E49086000202C490831C8
:101260000860091F08602A4914310860091D0860D8
:1012700003202749103108602648091F08602648C6
:1012800023491C3108601D48006820F040001B49BC
:1012900008602248091D08604FF4166008F062F8E3
:1012A0001F481649091D08604FF4616008F05AF89C
:1012B0001C481249091D08604FF4965008F052F876
:1012C00019480E49091D086041F2707008F04AF88B
:1012D00016480A49091D08604FF4E15008F042F829
:1012E00000200B490839086000F022F810BD00000A
:1012F000004200500040005000440050144700508D
:10130000FDFFFEFFCFFFF0FFA0252600002F0B0101
:101310000C4600500500010003002001002F0501CC
:10132000002F0301002F0201002F0101002F0001F7
:1013300070B52449096801F4803181B322490968F4
:1013400001F0010109B1214801E0FFF7CBFE1E4980
:101350000C39096801F00401C1B11B49091F096872
:10136000C1F303614E1C1849091F0968C1F3062126
:101370004D1C1549091F0968C1F306414C1C16FB99
:1013800004F1B0FBF1F101FB05F00AE00E49091F81
:10139000096801F07F014C1CB0FBF4F001E0FFE7AD
:1013A0000A4808490968C9B2491CB0FBF1F005496F
:1013B000091D096801F00101491CB0FBF1F0044965
:1013C000086070BD0C4600501C47005000366E018E
:1013D000C0FF032072B61249124A116000BF00BF5D
:1013E00000BFBFF34F8F00BF00BF00BF62B60D4903
:1013F0008031096841F470010A4A8032116009495C
:101400000C31096821F00801064A0C3211600649C6
:10141000486920F00F0040F0040048617047000068
:101420000000000808ED00E00020005810B5102270
:1014300051060448FEF77CFFFFF7CCFFFFF76CFE78
:1014400010BD0000C4FF032010B51648006800F06E
:101450006DF9C4B21448406A48B9FA2C20D1124838
:10146000416A001D445401200F49486218E0FE2CD7
:101470000DD10D48416A001D4454001F406A401CB4
:1014800009498862002048620120086008E0064897
:10149000416A001D4454001F406A401C02494862D2
:1014A00010BD0000E40000204C1F002010B50548CE
:1014B000006800F03BF9C4B221460348006802F01E
:1014C000B9FE10BDF40000200400002070B50446F1
:1014D000102000F0FFF825462048284448B1B0F518
:1014E000804F0AD0B0F5004F0BD01D49084480B999
:1014F0000BE0042000F002F90CE0082000F0FEF8F8
:1015000008E0102000F0FAF804E0164800F0F6F8C1
:1015100000E000BF00BF00BF25461048284448B186
:10152000B0F5804F0AD0B0F5004F0BD00C490844FD
:1015300080B90BE0042000F0EDF80CE0082000F08A
:10154000E9F808E0102000F0E5F804E0054800F0B4
:10155000E1F800E000BF00BF00BF70BD0040FFBF6A
:10156000008000F80100001070B504460E462046C9
:10157000FFF7ACFF00BFE06840F48070E06000BFA0
:10158000256825F4404545EA8635256070BD0A6822
:1015900042618A88C2F34032120542600A7902F041
:1015A0000F0242628A88C2F3032202628A88C2F36F
:1015B000003282610A79C2F30312C262704770B5C9
:1015C00003460C461546D3F8A8200A2C16D2DFE8AD
:1015D00004F00506090A151515150D1100BF0321A4
:1015E00000200FE000BF0C2102200BE04FF44071FF
:1015F000082007E04FF440610A2003E04FF4405117
:101600000C2000BF00BF8A4305FA00F63243C3F83E
:10161000A82070BD0A46016821F0300141EA02119C
:101620000160704730B58C1000F1100353F824307E
:101630008C07E50EF824AC40A3438D1000F1100494
:1016400044F82530436F4D000324AC40A343436767
:101650001E4B984202D01E4B984205D1036E0124C6
:101660008C40A343036620E053688B404360CC105A
:1016700000F1400353F824304C07E50E0724AC403A
:10168000A343CD1000F1400444F82530137A4C07F1
:10169000E40EA340CD1000F1400454F8254023434C
:1016A000CD1000F1400444F8253013788C07E40E87
:1016B000A3408D1000F1100454F8254023438D10F1
:1016C00000F1100444F8253030BD0000008E0248BF
:1016D000008F02480149086070470000044600502E
:1016E00000BF044800680449096801F00101C840CE
:1016F00070470000C0FF03201446005010B5010FD2
:1017000020F07042024B01EB410443F8242010BD4D
:101710004846005010B5010F20F07042024B01EB1B
:10172000410443F8242010BD144400500146D1F870
:101730000C2102F0E06212B94A6D90B202E0D1F8D9
:101740001C2190B2704770B504460D461026204605
:1017500000F04AF8E87900B1EE793246204629686F
:1017600000F07EF8A879401E4000012101EB5601EF
:1017700040EA0120401C40F44030E0632879401EDC
:101780004FF4817141EA00606063687930B1616B48
:101790006879401E41EA0040606305E0616B28798A
:1017A000401E41EA004060634FF4A060A0634FF028
:1017B000FF30E0642889206470BDD0F8082102F071
:1017C000E0626AB900BF00BF826B02F08002802A2B
:1017D000F9D04FF40052C26400BFC0F8801001E09D
:1017E000C0F880117047000010B5044616488442C6
:1017F00002D01648844204D11348083000F086F81D
:1018000014E01348844202D01248844204D11048A4
:10181000083000F07BF809E00F48844202D00F48FE
:10182000844203D10C48083000F070F80320E060D7
:1018300000BFE06800F001000028FAD0206C20F022
:101840000F00206410BD00000000034000020340B0
:1018500000000248000202480040024800420248DC
:101860002DE9FF5F05460E461746642E3BD3002F39
:1018700039D0FFF735FF6421B0FBF1F0039064200D
:10188000B6FBF0F601200290019040F2FF3000908C
:10189000044615E00398604306FB07F1B0FBF1F93D
:1018A0004FEA992AC9F3090BBAF5806F07D200985D
:1018B000834504D2CDF800B0CDF804A00294641E94
:1018C000002CE7D1029840F400402861686909497A
:1018D0000840791E40EA81210198401E41EA0040FB
:1018E0006861A04601E04FF00108404604B0BDE841
:1018F000F09F0000EF8000FC10B5836907248C4046
:10190000A34302FA01F42343836110BD10B50446DA
:101910000F48844206D1C014FFF7F0FEE014FFF731
:10192000F9FE14E00B48844206D10B48FFF7E6FEAF
:101930000948FFF7EFFE0AE00848844207D106484D
:101940008030FFF7DBFE04488030FFF7E3FE10BD78
:1019500008000340080002488000001008400248C8
:1019600010B500F08FFA00F049FA00F031FC10BD1C
:101970002DE9F04F99B080460C4615462079C0F30A
:10198000421010B919B0BDE8F08F2068C0F30920EB
:101990000C2800D1F6E72068C0F30920102800D8F1
:1019A000F0E704F10C0B2068C0F30920A0F1100A45
:1019B0004FEA1A19002708F2064101A800F041F881
:1019C000002605E00BEB070101A8A8471037761C9D
:1019D0004E45F7D301A800F025F80748854208D105
:1019E000217901F01F012068C1EB102161F3112062
:1019F000206000BFC6E70000E724000800B9704778
:101A0000017811B101781F2900D1F8E7016821F4AC
:101A10007F41016000BFF2E7024602F10C01491C60
:101A2000087870470146002008E0002301F14002D9
:101A30001354203A13540B54421CD0B22028F4D330
:101A4000704778B505460E4601200090002407E057
:101A5000315D05F14000015520380155601CC4B2CC
:101A6000202CF5D3082404E0694605F1400000F07D
:101A700071FC601EC0B2041EF6D178BD00B52DED1C
:101A8000068BEDB0B0EE409AF0EE609AB0EE418A6F
:101A9000F0EE618A2B4A19EE100A19EE901A1061C5
:101AA000516129480168684606F04BFFCC2269461F
:101AB0003AA8FEF73DFC1C224AA933A8FEF738FCE1
:101AC0002048DDE93312016042601F480168684622
:101AD00006F037FFCC2269463AA8FEF729FC1C2203
:101AE0004AA933A8FEF724FC1648DDE935128160C7
:101AF000C2601822014667A8FEF71AFC9DED6B2B09
:101B00009DED691B9DED670B104806F07BFCB0EE68
:101B1000480A0E4806F071FC18EE900AFEF740FEE7
:101B200041EC1A0BB0EE4A0AF0EE6A0A074806F0DA
:101B300041FE00221146054806F0B0FD6DB0BDEC37
:101B4000068B00BDC01E002004000020881E00205F
:101B500010B500211848FFF707FD174801F004F8F9
:101B600000211548FFF756FD14491548FFF70FFDF2
:101B700040F6B731124801F043F841F2F8511048ED
:101B800001F03CF805210C4801F036F800210C4822
:101B900001F004F8002211460948FFF710FD032167
:101BA0002C2000F001FB2C2000F061F900210248FC
:101BB00000F0B2FD10BD000000C0004040950008DC
:101BC00000C1004010B500211848FFF7CDFC1748B0
:101BD00000F0CAFF00211548FFF71CFD1449154805
:101BE000FFF7D5FC40F6B731124801F009F841F291
:101BF000F851104801F002F850210C4800F0FCFFA9
:101C000000210C4800F0CAFF012200210948FFF71B
:101C1000D6FC03212D2000F0C7FA2D2000F027F973
:101C20000121024800F078FD10BD000000C0004016
:101C30004095000800C2004010B5002201210B4869
:101C400006F0CAFD4FF4806009490860486088606A
:101C5000C860086148618861C8610862486288623A
:101C6000C862086348638863C86310BD441E0020CF
:101C700010000020102103E0425C044B9A5C4254A7
:101C80000A1EA1F10103D9B2F6D17047E19500080F
:101C9000F0B505462C462E462078AA2800D0F0BD87
:101CA0002068C0F3854000B1F9E72068C0F309203F
:101CB000B0F5806F00DDF2E72068C0F309200C2842
:101CC00005D92068C0F30920102800D2E7E70A21CF
:101CD000304600F027FFA16860F31F41A160206833
:101CE000C0F30920102808D32068C0F30920071F7B
:101CF0003946304600F027FFF05100BFCFE7000023
:101D000030B5CBB280EA0302D4B2034D35F81440AB
:101D100084EA202030BD00001401002030B5CBB291
:101D200080EA0302D4B2034D55F8244084EA10201F
:101D300030BD00001403002010B5002211460248F7
:101D400006F082FC10BD0000881E002010B510486F
:101D500000684FF47A71B0FBF1F4601EB0F1807F3F
:101D600001D301200FE0601E4FF0E02148613F21C8
:101D70004FF0FF3000F018FA00204FF0E0218861AA
:101D800007200861002008B100BFFEE710BD000079
:101D9000C0FF032000B58DB00748019007480390AD
:101DA00007480C9000231A4601A90648006805F070
:101DB00075FE0DB000BD000016EC0F00000A010317
:101DC0005000002004000020427843794370437A99
:101DD0004371437B43724273827A83788372827049
:101DE000C178C37BC370C37AC373C379C372C17133
:101DF000817B8379837381717047000010B511492D
:101E000011480068FFF79FFC002211460E48006849
:101E100000F0CCFE0C48006800F046FB10200B4997
:101E200008700A4604210A48FFF7FCFB0120094913
:101E30004860902008700A4605210548FFF7F2FB2C
:101E400010BD0000F8000020F4000020901F0020CA
:101E5000008002489C1F002000F01F0201219140D9
:101E60004209920002F1E022C2F80011704700F02E
:101E70001F02012191404209920002F1E022C2F8C2
:101E80000011704710B5114911480068FFF75BFC5D
:101E9000012200210E48006800F088FE0C4800680E
:101EA00000F002FB10200B4908700A460E210A4878
:101EB000FFF7B8FB012009494860902008700A46E6
:101EC0000F210548FFF7AEFB10BD0000E800002021
:101ED000E4000020781F002000830248841F0020B7
:101EE0002DE9F0410346002234E09D5C501C1E5C4D
:101EF000901C1F5CD01C13F8008085EA0600784017
:101F000080EA080485EA060000F0C1FE6040995CA2
:101F10004840985486EA070000F0B9FE6040511C22
:101F2000595C4840511C585487EA080000F0AFFE45
:101F30006040911C595C4840911C585488EA050047
:101F400000F0A5FE6040D11C595C4840D11C58549B
:101F5000101DC2B2102AC8DBBDE8F0812DE9F043A4
:101F6000E7B007468846914608F10C054C462878AC
:101F7000022850D1687800284DD1AD1C2E4630780B
:101F800000F02000C8B1394601A806F0DAFCCC22E6
:101F900001A934A8FEF7CCF9192244A92046FEF77E
:101FA000C7F9E06B012808D194F83300032804D165
:101FB000606B012801D100F01DFD308800F4007035
:101FC000002828D0323460782070384606F0A9FC0A
:101FD000607014F8320901281DD194F833000328E9
:101FE00019D1394601A806F0ACFCCC2201A934A8CD
:101FF000FEF79EF9192244A904F11900FEF798F999
:10200000606B18B905A006F0D5FC02E009A006F047
:10201000D1FC0120606367B0BDE8F083486F6D6557
:10202000204C6F636174696F6E20536574210D0AD3
:1020300000000000486F6D65204C6F636174696F2C
:102040006E2055706461746564210D0A0000000003
:1020500010B500220121044806F0BEFB40220349CE
:102060000348FEF765F910BD441E0020A1000020C2
:102070001000002010B50246102003E0135C0C5C39
:1020800063401354031EA0F10104E0B2F6D110BD69
:1020900030B502460B466BB11046D41702EB1474F0
:1020A0002411A2EB0414C4F1100502F110042C4415
:1020B000A1B202E002F1100081B2084630BD00007A
:1020C0000FB400B52DED048B83B068469FED2B0A4D
:1020D00080ED000A9FED290A80ED010A9FED270A95
:1020E00080ED020A00BF9DED0F1BB0EE410AF0EE3D
:1020F000610A51EC100BFEF77FFB08EE100A9DED14
:10210000111BB0EE410AF0EE610A51EC100BFEF724
:1021100073FB08EE900A9DED081BB0EE410AF0EE4D
:10212000610A51EC100BFEF767FB09EE100A9DEDFA
:102130000A1BB0EE410AF0EE610A51EC100BFEF7FB
:102140005BFB09EE900AF0EE481AB0EE681AF0EE6A
:10215000490AB0EE690A01A9684600F0A3FA9DEDAC
:102160000C0A8DED020A9DED000ADDED010A9DEDE0
:10217000021A03B0BDEC048B5DF814FB00000000F4
:1021800010B5002807DA8A06140E054A00F00F037E
:102190001B1FD45403E08A06130E024A135410BDC9
:1021A00018ED00E000E400E010B5002807DA8A0628
:1021B000140E054A00F00F031B1FD45403E08A06D7
:1021C000130E024A135410BD18ED00E000E400E0C5
:1021D00010B54FF480411E48006800F0CAFC05228B
:1021E00008211B480068FFF787FB4FF4004118489F
:1021F000006800F0BEFC05220C2115480068FFF7BE
:102200007BFB02215920FFF7BBFF5920FFF724FE7B
:102210004FF480410F48006800F0ABFC0522082114
:102220000C480068FFF768FB4FF40041094800685C
:1022300000F09FFC05220C2106480068FFF75CFBBC
:1022400003215F20FFF79CFF5F20FFF705FE10BD15
:10225000E4000020F400002030B50A461C211BE0F9
:10226000435C0C1F045D634043544B1CC35CCC1E99
:10227000045D63404C1C03558B1CC35C8C1E045DC9
:1022800063408C1C0355CB1CC35C4C1E045D634037
:10229000CC1C03550B1FD9B21029E1DC037C047B55
:1022A0002B4D2C5D63400374437C447B2C5D634069
:1022B0004374837C847B2C5D63408374C37CC47BC8
:1022C0002C5D6340C3740C211BE0435C0C1F045D58
:1022D000634043544B1CC35CCC1E045D63404C1CE8
:1022E00003558B1CC35C8C1E045D63408C1C035522
:1022F000CB1CC35C4C1E045D6340CC1C03550B1F00
:10230000D9B20029E1DC137803F001030BB18D236E
:1023100000E00023147883EA64031370437F0C4CBD
:10232000E35C147863400478634003704378847FEF
:10233000074D2C5D634043708378C47F2C5D634000
:102340008370C378047F2C5D6340C37030BD000090
:10235000E195000830B50A46437F3B4CE35C1478B6
:1023600063400478634003704378847F364D2C5D6E
:10237000634043708378C47F2C5D63408370C3786F
:10238000047F2C5D6340C3701378DB0903EBC30348
:1023900003EB4303147883EA4403137004211BE026
:1023A000435C0C1F045D634043544B1CC35CCC1E58
:1023B000045D63404C1C03558B1CC35C8C1E045D88
:1023C00063408C1C0355CB1CC35C4C1E045D6340F6
:1023D000CC1C03550B1DD9B21029E1DB037C047B17
:1023E000194D2C5D63400374437C447B2C5D63403A
:1023F0004374837C847B2C5D63408374C37CC47B87
:102400002C5D6340C37414211BE0435C0C1F045D0E
:10241000634043544B1CC35CCC1E045D63404C1CA6
:1024200003558B1CC35C8C1E045D63408C1C0355E0
:10243000CB1CC35C4C1E045D6340CC1C03550B1DC0
:10244000D9B22029E1DB30BDE1950008102103E07D
:10245000425C044B9A5C42540A1EA1F10103D9B2BA
:10246000F6D17047E19600087CB504460E46002080
:102470008DF806008DF805008DF8040000250EE0AB
:1024800020788DF8040060788DF805006A4605A173
:1024900001A8FDF78DFF00987055A41C6D1C202D20
:1024A000EEDB7CBD25780000016C21F00F01891C5A
:1024B000016470474278437B4370437A43734379A6
:1024C000437242718278837A83708272C178C37951
:1024D000C370C37AC371C37BC372C1738179837BB9
:1024E00083718173704778B504460D46224604F126
:1024F0004001284600F0C2F82846FFF7DBFF2846D7
:10250000FFF7A4FF0E268020009019E006F00100DE
:1025100048B169462046FFF79FFE04F110012846A6
:10252000FFF7A8FD03E021462846FFF7A3FD284654
:1025300000F049F82846FFF7BDFF2846FFF786FF61
:10254000701EC0B2061EE1D121462846FFF792FD5B
:1025500078BD78B504460E46224604F12001304687
:1025600000F08CF80125012000901BE03046FFF7B9
:1025700081FB3046FFF728FC3046FFF7B1FC05F041
:10258000010028B104F110013046FFF773FD07E0A8
:1025900069462046FFF7DEFE21463046FFF76AFD1A
:1025A000681CC5B20E2DE1DB3046FFF763FB3046F9
:1025B000FFF70AFC69462046FFF7CCFE214630466D
:1025C000FFF758FD78BD2DE9F84F0346002251E092
:1025D0009C5C501C1D5C901C1E5CD01C1F5C84EA23
:1025E0000500704080EA0708404600F050FB834633
:1025F0008BEA040181EA060000F049FB009000F03C
:1026000046FB80EA08098BEA050181EA070000F031
:102610003EFB009000F03BFB80EA080A84EA0500DC
:1026200000F035FB80EA0900995C4840985485EA3F
:10263000060000F02CFB80EA0A00511C595C48405F
:10264000511C585486EA070000F021FB80EA09007B
:10265000911C595C4840911C585487EA040000F0D2
:1026600016FB80EA0A00D11C595C4840D11C585422
:10267000101DC2B2102AABDBBDE8F88F30B503469F
:10268000102008E00C5C14541D5C6C401C5400F1DC
:1026900010040D5D1555041EA0F10105E8B2F1D13D
:1026A00030BD000070B52DED068B04460D46F0EEF2
:1026B000408AB0EE608AB0EE419AF0EE619A38EE50
:1026C000C90AB0EE40AA38EE690AF0EE40AA9FEDC2
:1026D0000A0A2AEE800A84ED000AB0EE480AFDF7E5
:1026E000A9FDDFED050A6AEE200A20EE200A85ED3D
:1026F000000ABDEC068B70BD32A5C24A9FED040AEC
:10270000044880ED0E0A00200249C86370470000AB
:10271000000000000C1F0020C26801238B401A43F8
:10272000C26070477CB504460D4600BF94F8580659
:10273000E0B1002084F8580600BF00231A460121AA
:10274000204601F045FB642000F0ACFA0220ADF811
:102750000400204606F0E1F8ADF80600002003462C
:10276000042201A90090204602F018FA00BF94F854
:102770005906E0B1002084F8590600BF00231A462C
:102780001946204601F024FB642000F08BFA032058
:10279000ADF80400204606F0C0F8ADF806000020B1
:1027A0000346042201A90090204602F0F7F900BF79
:1027B00094F85A06C0B1002084F85A0600BFFFF70B
:1027C000E9FA642000F06EFA0420ADF80400204617
:1027D00006F0A3F8ADF8060000200346042201A984
:1027E0000090204602F0DAF900BF94F85B06E0B1F1
:1027F000002084F85B0600BF00231A46012128460A
:1028000001F00EF9642000F04DFA0520ADF8040047
:10281000204606F082F8ADF80600002003460422A8
:1028200001A90090204602F0B9F900BF94F85C06B7
:10283000E0B1002084F85C0600BF00231A46194668
:10284000284601F0EDF8642000F02CFA0620ADF8DF
:102850000400204606F061F8ADF8060000200346AB
:10286000042201A90090204602F098F900BF94F8D4
:102870005D06E0B1002084F85D0600BF00231A4623
:102880000421284601F0A0F8642000F00BFA07208C
:10289000ADF80400204606F040F8ADF80600002030
:1028A0000346042201A90090204602F077F900BFF8
:1028B00094F85E06E0B1002084F85E0600BF0023B5
:1028C0001A460621284601F07FF8642000F0EAF954
:1028D0000820ADF80400204606F01FF8ADF8060009
:1028E00000200346042201A90090204602F056F978
:1028F00000BF94F85F06E0B1002084F85F0600BFD7
:1029000000231A460121284601F05EF8642000F0F9
:10291000C9F90920ADF80400204605F0FEFFADF826
:10292000060000200346042201A90090204602F080
:1029300035F900BF94F86806E8B1002084F868060D
:1029400000BF4220ADF804000B48C06B012805D140
:10295000FFF7D4FE80B2ADF8060004E000F00EF8F8
:1029600080B2ADF8060000200346042201A90090C1
:10297000204602F013F97CBD0C1F002010B514484E
:10298000406B01280DD1124890ED050AF6EE000AC1
:10299000B4EEE00AF1EE10FA03D390F83300032806
:1029A0000CD09FED0C0A0A4880ED0E0A0020084961
:1029B000C86309A005F0FEFF012010BD9FED050AC8
:1029C000034880ED0E0A01200149C8630020F4E7A6
:1029D0000C1F002000000000506C656173652074BE
:1029E000616B65206F6666206669727374210D0ADB
:1029F0000000000000B52DED048B8DB0434890ED34
:102A0000050ADFED430AB4EEE00AF1EE10FA0FD248
:102A1000DFED401AB3EE091ADFED3E0A9FED3D0AE5
:102A200091213D4800F058FE0DB0BDEC048B00BD77
:102A3000364890ED0E0ADFED390A30EE200A80EDBF
:102A40000E0AD0ED0E0AB0EE001A60EE810AB0EE6A
:102A5000600AFDF72BFCF3EE090A20EE200AB0EE27
:102A6000408A2A48D0ED0E0AB0EE600AFDF7E2FB7C
:102A700020EE080AF0EE408A2448D0ED0E0AB0EEAF
:102A8000600AFDF713FC20EE080AB0EE409A192206
:102A90001E49193103A8FDF74BFC09221B491031CF
:102AA0006846FDF745FC19480FC8FFF709FB8DED97
:102AB0000A0ACDED0B0A8DED0C1A9DED0B1A39EEBD
:102AC000411AF0EE410A9DED0A1A38EEC11AB0EE35
:102AD000410ADFED101AB3EE091A91210E4800F0F9
:102AE000FBFD0A4890ED0E0ADFED0D0AB4EEE00A98
:102AF000F1EE10FA06DD9FED070A80ED0E0A0020C8
:102B00000249C86300BF00BF8EE700000C1F002011
:102B10000000C44100000000080000206F12033BC9
:102B2000C3F5C840F0B505460E4643F6A32700247A
:102B300005E0295D3846FFF7E3F80746641CB44218
:102B4000F7D33846F0BDF0B505460E4643F6A32749
:102B5000002405E0295D3846FFF7E0F80746641CCD
:102B6000B442F7D33846F0BDC16841F48071C1600A
:102B70007047026C0A430264704770B504460B2527
:102B8000A088461BA01D81192A46FDF7D1FBA11D77
:102B900048193146FDF7F3FBA58070BDD0F8A4209D
:102BA00001238B401A43C0F8A420704710B500F1F0
:102BB0001C0353F8213023F0500400F11C0343F8A8
:102BC000214000BF53F8213023F00703134300F1E5
:102BD0001C0444F8213000BF10BD10B50446A08885
:102BE00048B1A088401EA080A08820B1A288E11D25
:102BF000A01DFDF79DFB10BD01617047416370474B
:102C0000C16370472DE9F0470446A51DA0880C3824
:102C100086B205F10C082088801B87B205EB0709F6
:102C2000324641464846FDF783FB0C20A0802046F3
:102C3000FFF7D3FF27806088401C6080BDE8F087E5
:102C400010B5FEF78DFEFFF781F8FEF781FFFEF766
:102C5000B9FF10BD2DE9F04706460C4617469846C9
:102C6000DDE908952088304048B1286800EB08016C
:102C70004A463846FDF75CFB2868484428602088AF
:102C80004FF6FF7101EA40002080BDE8F087014661
:102C900001F0800018B11B2080EA410000E04800EC
:102CA000C0B27047002106E047F2305100BF0A1E53
:102CB000A1F10101FBD1021EA0F1010398B2F3D1F1
:102CC0007047014601F10C021078704700F07F0256
:102CD00000EE102AB8EEC00AF0EE400A00EE101A1C
:102CE000B8EE400AB0EE401A00F0800262B1DFEDAB
:102CF0000D1AB0EE410A00EEA10AF1EE401A9FED66
:102D00000A2A81EE820A7047DFED061AB0EE410A08
:102D100000EEA10A9FED042AC0EE021AB0EE610A8D
:102D2000F1E70000000080430000C842F0B52DED3F
:102D3000028BE9B004460D4616462068012802D1F0
:102D40000020206003E069B0BDEC028BF0BD20796B
:102D5000FA2802D16079FB2800D0F4E7A0790A288C
:102D60007ED2DFE800F0050B0E1A26E0F2F1F0EF5C
:102D700000221146284602F033FE69E1FFF70AF807
:102D800066E1E07908B1012000E00020014600235F
:102D90001A46284601F01CF85AE1E07908B10120F2
:102DA00000E00020014600231A46304600F038FEBD
:102DB0004EE1E079012872D1207AA7490870A17A02
:102DC000607AFFF783FF10EE100AA349C1F80100F3
:102DD000217BE07AFFF77AFF10EE100A9E49C1F8D6
:102DE0000500A17B607BFFF771FF10EE100A9A4986
:102DF000C1F80900217CE07BFFF768FF10EE100AA4
:102E00009549C1F80D00304600F034FE00BF0120A6
:102E10009249C86000BFA17A607AFFF757FF10EEB1
:102E2000107A3846FDF7BCFC41EC180B53EC182B1C
:102E30008BA005F0BFFD217BE07AFFF747FF10EE86
:102E4000107A3846FDF7ACFC41EC180B53EC182B0C
:102E500087A005F0AFFDA17B607BFFF737FF00E0A7
:102E6000F5E010EE107A3846FDF79AFC41EC180BAD
:102E700053EC182B82A005F09DFD217CE07BFFF731
:102E800025FF10EE107A3846FDF78AFC41EC180B4E
:102E900053EC182B7DA005F08DFD43E0FFE7E079B2
:102EA00002283FD1A17A607AFFF710FF10EE107A66
:102EB0003846FDF775FC41EC180B53EC182B68A055
:102EC00005F078FD217BE07AFFF700FF10EE107A25
:102ED0003846FDF765FC41EC180B53EC182B64A049
:102EE00005F068FDA17B607BFFF7F0FE10EE107A25
:102EF0003846FDF755FC41EC180B53EC182B60A03D
:102F000005F058FD217CE07BFFF7E0FE10EE107A23
:102F10003846FDF745FC41EC180B53EC182B5BA031
:102F200005F048FD94E0E079012804D002280DD096
:102F3000032819D111E000231A460121304600F080
:102F400043FD11E078E051E031E00FE000231A4644
:102F50000421304600F038FD06E000231A46062121
:102F6000304600F031FD00BF00BF71E0E07938B9B4
:102F7000FEF762FE00BF01204749086100BF15E06F
:102F8000E079022807D1FFF763F800BF012042492A
:102F9000C86000BF0AE0E079012807D1FEF74CFEC7
:102FA00000BF01203C49C86000BF00BF50E0E0798D
:102FB000C8B9207AFDF7E7FB41EC180BA07A00EEC8
:102FC000100AB8EE400AF0EE401A607A00EE100ADD
:102FD000B8EE400AB0EE401AB0EE480AF0EE680AC9
:102FE000FEF74CFD01E0FEF7A7FE31E029466846FA
:102FF00005F0A7FCCC22694636A8FDF799F9DDF863
:10300000DA003390DDF8DE003490BDF8E200ADF870
:10301000D40022A0339905F0CDFC294603A805F081
:1030200090FCCC2203A936A8FDF782F99DF89D11EA
:103030001FA005F0BFFC0BE0E079012802D1FFF7EB
:103040009DFC03E0E07908B9FFF758FB00E000BF02
:1030500000BF00BF77E60000301E002000C2004025
:10306000726F6C6C5F6F725F78203D25660A00009E
:1030700070697463685F6F725F79203D25660A002E
:103080007468725F7A203D25660A000079617720B6
:103090003D25660A0A00000000C1004054696D65C4
:1030A0005374616D702069732025640D0A0000005F
:1030B00042617474657279206361706163697479C7
:1030C0002072656D61696E7320256420706572637E
:1030D000656E740D0A00000070B505460C4624B1FB
:1030E000214604A005F066FC03E0034901A005F0B9
:1030F00061FC70BD25730000A81F00207047704759
:1031000070477047704700002DE9FF4107460C46A5
:1031100090462068C0F309201038012835D820686F
:10312000C0F30920A0F1100204F10C0103A8FDF77F
:10313000FFF89DF80C10384603F0FEF900284DD139
:103140009DF80C006D21264B26A2CDE9001027A189
:10315000304805F03FFC0546681C60B1B5F5806F4E
:1031600009DA384605F00CFC064600680021426D7D
:103170003046904708E0384605F002FC06460068F5
:1031800025A1426D3046904728E0208980B2216811
:10319000C1F304617122124BCDE90021029011A20A
:1031A00025A11C4805F016FC0546681C60B1B5F564
:1031B000806F09DA384605F0E3FB06460068002117
:1031C000426D3046904708E0384605F0D9FB064688
:1031D000006811A1426D3046904700BFBDE8FF81F5
:1031E000C29800084552524F520000002573202516
:1031F000732C6C696E652025643A204465636F64A6
:10320000652041434B206572726F722030782558DB
:103210000A000000A81F00204552524F523A206C6D
:103220006F67207072696E74657220696E6E657268
:10323000206661756C740A0025732025732C6C69F7
:103240006E652025643A2041434B206973206578E0
:1032500063657074696F6E2C73657373696F6E202C
:1032600069642025642C73657175656E636520251E
:10327000640A00002DE9FF4107460C46904620688D
:10328000C0F309201038022878D82068C0F309203C
:10329000A0F1100204F10C0103A8FDF749F8BDF8F4
:1032A0000C0030B1012829D002284CD0032824D1A9
:1032B0006FE0BDF80C00F3215F4B60A2CDE9001078
:1032C00060A1684805F086FB0546681C60B1B5F54D
:1032D000806F09DA384605F053FB06460068002186
:1032E000426D3046904708E0384605F049FB0646F7
:1032F00000685DA1426D304690476FE0BDF80C005C
:10330000F6214D4B4DA2CDE900105FA1554805F0C7
:1033100061FB0546681C60B1B5F5806F09DA384677
:1033200005F02EFB064600680021426D30469047AE
:1033300008E0384605F024FB064600684AA1426DC5
:10334000304690474AE0BDF80C00F9213A4B3BA2C9
:10335000CDE900105AA1434805F03CFB0546681C26
:1033600068B1B5F5806F0ADA384605F009FB064604
:1033700000680021426D3046904709E02FE0384652
:1033800005F0FEFA0646006837A1426D30469047C8
:1033900024E0BDF80C00FC21274B28A2CDE9001049
:1033A00051A1304805F016FB0546681C60B1B5F523
:1033B000806F09DA384605F0E3FA06460068002116
:1033C000426D3046904708E0384605F0D9FA064687
:1033D000006825A1426D3046904700BF29E0208952
:1033E00080B22168C1F304614FF48172124BCDE9C0
:1033F000002102904AA24CA11A4805F0EBFA0546BA
:10340000681C60B1B5F5806F09DA384605F0B8FA86
:10341000064600680021426D3046904708E0384675
:1034200005F0AEFA064600680FA1426D304690479F
:1034300000BFBDE8FF8100001698000853544154B6
:103440005553000025732025732C6C696E6520256B
:10345000643A20537563636573732C307830303071
:1034600025780A00A81F00204552524F523A206C7E
:103470006F67207072696E74657220696E6E657216
:10348000206661756C740A0025732025732C6C69A5
:103490006E652025643A204E65656420746F206F48
:1034A000627461696E20636F6E74726F6C206669FE
:1034B0007273742C20307830303025780A00000088
:1034C00025732025732C6C696E652025643A204194
:1034D0006C726561647920646F6E652C2030783081
:1034E000303025780A00000025732025732C6C6984
:1034F0006E652025643A2043616E6E6F7420657896
:103500006563757465207768696C6520696E2061F4
:1035100069722C20307830303025780A00000000A5
:103520004552524F5200000025732025732C6C69C0
:103530006E652025643A2041434B206973206578ED
:1035400063657074696F6E2C73657373696F6E2039
:1035500069642025642C73657175656E636520252B
:10356000640A00002DE9FF4107460C46904620689A
:10357000C0F30920103802282FD82068C0F3092092
:10358000A0F1100204F10C0103A8FCF7D1FEBDF874
:103590000C004FF48771274B27A2CDE9001028A11A
:1035A000334805F017FA0546681C60B1B5F5806F21
:1035B00009DA384605F0E4F9064600680021426D54
:1035C0003046904708E0384605F0DAF906460068CC
:1035D00028A1426D3046904729E0208980B22168B9
:1035E000C1F304614FF48972124BCDE900210290BE
:1035F00028A22AA11E4805F0EDF90546681C60B115
:10360000B5F5806F09DA384605F0BAF90646006864
:103610000021426D3046904708E0384605F0B0F989
:103620000646006813A1426D3046904700BFBDE8D2
:10363000FF81000022980008535441545553000064
:1036400025732025732C6C696E652025643A2054FF
:1036500061736B2072756E6E696E6720737563633C
:1036600065737366756C6C792C25640A0000000024
:10367000A81F00204552524F523A206C6F672070AD
:1036800072696E74657220696E6E6572206661750E
:103690006C740A004552524F5200000025732025D9
:1036A000732C6C696E652025643A2041434B206978
:1036B0007320657863657074696F6E2C73657373BE
:1036C000696F6E2069642025642C73657175656E61
:1036D00063652025640A0000F0B52DED048BF3B07E
:1036E00004460D46F0EE408AB0EE609AB0EE418A94
:1036F000F0EE619A8DF8B85118EE900ACDF8B90144
:1037000019EE100ACDF8BD0119EE900ACDF8C501E9
:10371000206805F0FAF89A4988427DD9206805F0BA
:10372000F4F89849884277D205F0100000285FD05D
:1037300001A8216805F005F9CC2201A93BA8FCF7F6
:10374000F7FD1C224BA934A8FCF7F2FD9DF8E80018
:1037500003282BDD206890ED380ADFED8B0AB4EEEC
:10376000600AF1EE10FA20D0206890ED380A30EEB1
:10377000080A10EE100ACDF8C10100200122CDE99F
:1037800003020590069011206EA90322CDE90021C5
:1037900002907E49097809B1012100E000210A4622
:1037A00001230021206804F041F8E4E06920784B0F
:1037B00078A27A4900907A4805F00CF90646701C08
:1037C00060B1B6F5806F09DA206805F0D9F80746D0
:1037D00000680021426D3846904708E0206805F0F7
:1037E000CFF8074600686FA1426D38469047C2E0A7
:1037F00018EE100ACDF8C10100200122CDE9030224
:103800000590069011206EA90322CDE900210290B7
:103810005E49097819B100E009E0012100E00021CA
:103820000A4601230021206804F000F8A3E0206884
:1038300005F06BF86349884278D105F01000002844
:103840005FD001A8216805F07CF8CC2201A93BA833
:10385000FCF76EFD1C224BA934A8FCF769FD9DF80E
:10386000E80003282BDD206890ED380ADFED460ADA
:10387000B4EE600AF1EE10FA7DD0206890ED380ABF
:1038800030EE080A10EE100ACDF8C1010020012226
:10389000CDE903020590069011206EA90322CDE91F
:1038A000002102903949097809B1012100E0002185
:1038B0000A4601230021206803F0B8FF5BE07A206C
:1038C000334B34A235490090354805F083F806465D
:1038D000701C60B1B6F5806F09DA206805F050F809
:1038E000074600680021426D3846904708E020688E
:1038F00005F046F8074600682AA1426D3846904711
:1039000039E018EE100ACDF8C10100200122CDE9FE
:1039100003020590069011206EA90322CDE9002133
:1039200002901A49097811B1012101E007E0002154
:103930000A4601230021206803F078FF1BE018EEFF
:10394000100ACDF8C10100200122CDE90302059043
:10395000069011206EA90322CDE9002102900B49A7
:10396000097809B1012100E000210A460123002164
:10397000206803F05BFF73B0BDEC048BF0BD00006A
:1039800000000203270F0203F023744908010020FE
:10399000039800085354415455530000F0A3000805
:1039A000A81F00204552524F523A206C6F6720707A
:1039B00072696E74657220696E6E657220666175DB
:1039C0006C740A0000640203F0B587B004460D462B
:1039D00016461F4665712079401C20710EB1304695
:1039E00000E00D4803216422CDE90507CDE903215C
:1039F0000221201D0122CDE900200291074909780A
:103A000009B1012100E000210A46012302212068BA
:103A100003F00CFF07B0F0BD653500080801002079
:103A2000F0B589B004460D4616461F4608950EB1FE
:103A3000304600E00D4801210022CDE90507CDE91F
:103A40000321084608A90522CDE900210290084972
:103A5000097809B1012100E000210A460123022171
:103A6000206803F0E3FE09B0F0BD000075320008E5
:103A70000801002030B587B004460D460020012221
:103A8000CDE903020590069011200321CDE9001530
:103A900002900749097809B1012100E000210A4696
:103AA00001230021206803F0C1FE07B030BD0000F3
:103AB00008010020016070472DE9FC4104460D46D5
:103AC0002868C0F3407000287DD02868C0F30460E7
:103AD000012879DD2868C0F30460202874DA41F2F7
:103AE0001052105912591268D16988472868C0F3DA
:103AF000046104F6184000EB41100078C0F3401751
:103B0000002F6DD02868C0F3046104F6184000EB64
:103B10004110406846683068C0F304602968C1F30A
:103B20000461884254D1308980B2298989B288429F
:103B30004ED12868C0F3046104F6184000EB411030
:103B400080688F4908602868C0F3046104F6184053
:103B500000EB4110C0688B4908602868C0F304621C
:103B600004F6184000EB4211204600F0ABFB41F296
:103B70001052105912591268116A8847804800681B
:103B800088B12078012804D12946204603F06CFC36
:103B90000DE0207858B97B48294602682046784BCA
:103BA0001B68984703E02946204600F0D9FF2868A3
:103BB000C0F3046204F6184000EB42100078C0F332
:103BC0004011204601E013E0D7E002F009FA0EE0D0
:103BD00041F21052105912591268116A884706E0D2
:103BE00041F21052105912591268116A8847C4E004
:103BF0002868C0F3046010B1012806D104E029460A
:103C0000204600F06FFBB7E000BF2868C0F30460F7
:103C100083215D4B5DA2CDE900105EA1634804F0F5
:103C2000D9FE0746781C58B1B7F5806F08DA41F223
:103C300010510859095909684A6D0021904707E059
:103C400041F210510859095909684A6D58A1904725
:103C50002868C0F30460401E41F21801214411F8A5
:103C60003000C0F34110012829D02868C0F3046057
:103C7000401E41F21801214411F83000C0F34110F8
:103C8000F0B92868C0F30460012814DD2868C0F387
:103C90000460401E41F21801214451F8300020F028
:103CA000600120312868C0F30460401E41F2180210
:103CB000224442F830102946204600F013FB5AE017
:103CC0002868C0F30460401E41F21801214411F835
:103CD0003000C0F3411002284DD141F2105210596A
:103CE00012591268D16988472868C0F30460401EE1
:103CF00041F21801214401EBC00040684668308958
:103D000080B2298989B2884215D12868C0F304603D
:103D1000401E41F21802224402EBC0004068416894
:103D2000204604F007F841F2105210591259126857
:103D3000116A88471FE02868C0F30460401E41F202
:103D40001801214451F8300020F06000203029682B
:103D5000C1F30461491E41F21802224442F83100C5
:103D600041F21052105912591268116A88472946B7
:103D7000204600F0B7FA00BF00BFBDE8FC8100009C
:103D8000140700201807002053980008535441548A
:103D90005553000025732025732C6C696E65202512
:103DA000643A2041434B202564000000A81F0020F6
:103DB0004552524F523A206C6F67207072696E7490
:103DC000657220696E6E6572206661756C740A009A
:103DD000F0B589B007460C4615461E4608940DB14D
:103DE000284600E00D4802214FF4FA72CDE905069D
:103DF000CDE90321012008A90022CDE9002102908C
:103E00000748007808B1012000E0002002460123A5
:103E10000221384603F00AFD09B0F0BDE95F000851
:103E20000801002070B506460C46A51D2868C0F3A1
:103E300009212846FEF787FE20B92146304603F0C7
:103E40004BFD02E02046FEF7DDFE70BD70B5064674
:103E50000D46AC1D2078AA281ED12068C0F38540ED
:103E6000D0B92068C0F30920B0F5806F14DA20685B
:103E7000800F88B96068000A70B90C212046FEF7EF
:103E800051FE48B92068C0F309200C2807D1294603
:103E9000304603F021FD02E02846FEF79EFE70BD8D
:103EA0002DE9F04F8BB005460F464FF0000A002673
:103EB000B146D54903C9CDE90101B34600200090C0
:103EC000B7F57C7F02DAB7F5806F03DD00200BB019
:103ED000BDE8F08F002419E005F6143030F8340006
:103EE000C0F3072001280FD105F6143050F8340034
:103EF0000AEB104A05F6143010F834204846411CED
:103F000001F0FF0903A90A54601CC4B2202CE3D3BA
:103F10000AEB0700B0F5806F01D90020D7E7BAF1AE
:103F2000000F15D140F618304159C5F8201B001D6F
:103F3000405967F31F4040F61C314851084640592C
:103F400020F47F4000F58070485105F61C30BEE734
:103F500000242FE0002626E003A8815D05F614303A
:103F600000EBC10003AA4168701C125C05F6143016
:103F700000EBC2004068814213D903A9701C085CA1
:103F8000895D484003AA711C505403A8805D515CB0
:103F9000484003A98855701C085C895D4840711C25
:103FA0005054701CC6B2A9EB0400401EB042D3DCD2
:103FB000601CC4B2A9F10100A042CBDC002447E0A0
:103FC00003A9601C095C05F6143000EBC1004168D0
:103FD00003A8025D05F6143000EBC2004068A1EBB7
:103FE000000803A8015D05F6143050F83100A8EB75
:103FF0001040B8421AD303A8025D05F6143050F8F9
:104000003200A8EB1040029981420FD903A8015D4C
:1040100005F6143010F83100019003A8015D05F693
:10402000143050F83100A8EB1040029003A8015D55
:1040300005F6143050F83100A8EB10408344BB451E
:1040400004D3009810B9264601200090601CC4B229
:10405000A9F10100A042B3DC0198401C00287DD1E9
:104060000298401C002879D1002457E003A8015D84
:1040700005F6143000EBC100416803A8025D05F6A7
:10408000143050F8320001EB104103AA601C125C9E
:1040900005F6143000EBC200406881423CD203AB0D
:1040A00013F804C005F6143303EBCC035B680DF181
:1040B0000C0C1CF804C005F6143E5EF83CC003EB83
:1040C0001C400DF10C0C631C1CF803C0734653F824
:1040D0003C301A0C0DF10C0C631C1CF803C0734629
:1040E00003EBCC035968FCF723F903A8015D05F63F
:1040F000143000EBC100416803A8025D05F61430DE
:1041000050F8320001EB104103AA601C125C05F666
:10411000143000EBC2004160601CC4B2B442A5DBA5
:10412000012435E005F6143030F83400C0F30720E0
:1041300060BB03A8815D05F6143000EBC100416847
:1041400003A8825D05F6143050F8320001EB1041EF
:1041500005F6143000EBC400416000E01CE005F6F9
:10416000143050F8340067F31F4005F6143141F85D
:104170003400084650F8340020F47F4000F5807089
:1041800041F83400084600EBC400A0E6601CC4B24D
:104190001F2CC7D300209AE6012431E005F6143025
:1041A00030F83400C0F3072040BB05F61430019905
:1041B00000EBC100416805F61430019A50F8320056
:1041C00001EB104105F6143000EBC400416005F628
:1041D000143050F8340067F31F4005F6143141F8ED
:1041E0003400084650F8340020F47F4000F5807019
:1041F00041F83400084600EBC40068E6601CC4B215
:104200001F2CCBD3002062E68498000870B50546C9
:104210000C462068C0F309206B280AD82068C0F338
:104220000920A0F1100204F10C0105F17000FCF767
:104230007FF870BD70B504460D46002140F2EC6079
:1042400001534FF48060A4F8EA062A4604F2EA61BA
:10425000204601F033FA40F2EC60005BA8B10BE0BD
:10426000B4F8EA16481CA4F8EA0604F5DE60425CDD
:10427000811F204601F022FAB4F8EA06B0F5806FFB
:10428000EEDB002140F2EC60015370BD70B50546D5
:104290000C46A61DA0880C2800D270BDA0880C2852
:1042A00004D121462846FFF7D1FD09E0A0883168F6
:1042B000C1F30921884203D121462846FFF7B2FD08
:1042C00000BFEAE700B503460A461078C0F3401085
:1042D00030B15068FDF792FB106820F020001060AC
:1042E00000BD0000F0B59FB004460D46642106A84D
:1042F000FCF745F8AE7B2846FEF7E3FC02287CD1AC
:104300002846FDF789FB052878D2DFE800F0033A5C
:104310000885F3002946204603F084FEB9E1B32066
:10432000E34BE4A2E5A10090EF4804F053FB0746FD
:10433000781C58B1B7F5806F08DA41F2105108596E
:10434000095909684A6D0021904707E041F2105170
:104350000859095909684A6DE4A19047D4F8C00585
:1043600040B140F2C450025929462046D4F8C03525
:10437000984705E000232A462146204603F0A4F88A
:1043800087E1BE20CA4BCBA2E0A10090D64804F042
:1043900021FB0746781C58B1B7F5806F08DA41F267
:1043A00010510859095909684A6D0021904707E0E2
:1043B00041F210510859095909684A6DCBA190473B
:1043C0002868C0F30460002825DD00208DF819005E
:1043D0008DF818002868C0F30460BDF80C1060F375
:1043E0000701ADF80C10288980B2ADF80E002879CD
:1043F000C0F34210BDF80C1001E04BE128E160F37E
:104400000F21ADF80C1006A805900220049003A916
:10441000204600F00DFA3CE1D4F8F00540B140F23E
:10442000F450025929462046D4F8F0359847E0E088
:10443000052E7AD2DFE806F0030436699B00D7E048
:1044400041F21650005D00282BD0D4F8D80540B1B9
:1044500040F2DC50025929462046D4F8D835984716
:104460001FE0DC20924B93A2B2A100909E4804F082
:10447000B1FA0746781C58B1B7F5806F08DA41F2F7
:1044800010510859095909684A6D0021904707E001
:1044900041F210510859095909684A6D93A1904792
:1044A00000BFA5E041F21550005D00282CD0D4F8E3
:1044B000D00540B140F2D450025929462046D4F8E4
:1044C000D035984720E0E620794B7AA2A1A1009050
:1044D000854804F07FFA0746781C60B1B7F5806F15
:1044E00009DA41F210510859095909684A6D002149
:1044F000904708E07EE041F21051085909590968D7
:104500004A6D7AA1904700BF72E041F21750005DFA
:1045100060B3D4F8E80548B140F2EC50025929469E
:104520002046D4F8E835984720E040E0F020604B82
:1045300060A28FA100906C4804F04CFA0746781CEA
:1045400058B1B7F5806F08DA41F21051085909598E
:1045500009684A6D0021904707E041F2105108595F
:10456000095909684A6D61A1904700BF40E0F520F4
:104570004F4B50A286A100905B4804F02BFA0746EF
:10458000781C58B1B7F5806F08DA41F2105108591C
:10459000095909684A6D0021904707E041F210511E
:1045A0000859095909684A6D50A1904720E0F82040
:1045B0003F4B7EA27FA1CDE900064B4804F00AFAEA
:1045C0000746781C58B1B7F5806F08DA41F21051F0
:1045D0000859095909684A6D0021904707E041F2DE
:1045E00010510859095909684A6D40A1904700BF08
:1045F00000BF4EE0D4F8E00540B140F2E45002596B
:1046000029462046D4F8E035984720E040F20310D0
:10461000274B28A272A10090334804F0DBF907462B
:10462000781C58B1B7F5806F08DA41F2105108597B
:10463000095909684A6D0021904707E041F210517D
:104640000859095909684A6D28A1904700BF20E020
:104650004FF48370164B17A269A10090224804F012
:10466000B9F90746781C58B1B7F5806F08DA41F2FE
:1046700010510859095909684A6D0021904707E00F
:1046800041F210510859095909684A6D17A190471C
:1046900000BF00BFD4F8F80538B140F2FC50025911
:1046A00029462046D4F8F83598471FB0F0BD0000E1
:1046B000CB950008535441545553000025732025D1
:1046C000732C6C696E652025643A205265636569B8
:1046D000766520646174612066726F6D206D6F6213
:1046E000696C650A00000000A81F00204552524F67
:1046F000523A206C6F67207072696E74657220691F
:104700006E6E6572206661756C740A0025732025D3
:10471000732C6C696E652025643A206F6E626F6140
:10472000726453444B206C6F737420636F6E7472A9
:104730006F6C0A0025732025732C6C696E6520252B
:10474000643A204D6F646520776179706F696E748B
:10475000200A000025732025732C6C696E652025C6
:10476000643A204D6F6465204850200A0000000024
:1047700025732025732C6C696E652025643A204DC5
:104780006F646520466F6C6C6F77200A0000000034
:1047900025732025732C6C696E652025643A204DA5
:1047A0006F646520494F43200A0000004552524F74
:1047B0005200000025732025732C6C696E6520253E
:1047C000643A20556E6B6E6F776E206D69737369F6
:1047D0006F6E20636F64652030782558200A0000D2
:1047E00025732025732C6C696E652025643A20574B
:1047F0004159504F494E542044415441000000005B
:1048000025732025732C6C696E652025643A20552C
:104810006E6B6E6F776E2042524F4144434153544A
:1048200020636F6D6D616E6420636F64650A0000C4
:104830002DE9FF4104460D464FF000080026686848
:10484000B0F57C7F26D34FF4BE716868514B52A2FD
:10485000CDE9001052A15C4804F0BCF80746781C72
:1048600058B1B7F5806F08DA41F21051085909596B
:1048700009684A6D0021904707E041F2105108593C
:10488000095909684A6D51A190474FF0FF3004B0B3
:10489000BDE8F081287808B90020F8E728780028DA
:1048A00074DD2878202871DA41F21052105912591B
:1048B0001268D16988472A88110AAA8890B2FDF740
:1048C000E7FB074629783A46204603F079F9064681
:1048D0004EB941F21052105912591268116A8847A4
:1048E0004FF0FF30D3E7688829782A88120A01231D
:1048F000CDE90032CDE90210A88883B2AA687068B9
:104900004168204602F0FCFF8046B8F1000F29D133
:104910004FF4CB701F4B20A234A100902A4804F022
:1049200059F80746781C58B1B7F5806F08DA41F29C
:1049300010510859095909684A6D0021904707E04C
:1049400041F210510859095909684A6D1FA1904751
:1049500041F21052105912591268116A88474FF0EB
:10496000FF3094E770684168204603F0E3F941F2B4
:104970001052105912591268116A8847306820F095
:10498000600040303060002081E7FFE74FF0FF30EB
:104990007DE700006C9800084552524F520000001D
:1049A00025732025732C6C696E652025643A206C74
:1049B000656E6774683D2564206973206F76657243
:1049C0002D73697A65640A00A81F00204552524F72
:1049D000523A206C6F67207072696E74657220693C
:1049E0006E6E6572206661756C740A0025732025F1
:1049F000732C6C696E652025643A20656E6372794C
:104A00007074204552524F520A0000002DE9FC47B5
:104A100004460E4617464FF000080EB1012E2DD168
:104A200004F6184000EB46100078C0F3401008B9B7
:104A3000354632E0C920354B35A237A1CDE9000615
:104A40003E4803F0C7FF814609F1010058B1B9F5AE
:104A5000806F08DA41F210510859095909684A6D06
:104A60000021904707E041F210510859095909689F
:104A70004A6D33A190470020BDE8FC87022509E07C
:104A800004F6184000EB45100078C0F3401000B960
:104A900002E06D1C202DF3D300BF202D34D204F68C
:104AA000184000EB45100078C0F3401000BB04F63E
:104AB000184000EB4510006820F02000203004F67C
:104AC000184101EB4511086039462046FFF7E8F927
:104AD0008046B8F1000F0CD104F6184000EB4510E9
:104AE000006820F0200104F6184000EB451001603A
:104AF0000AE004F6184000EB4510C0F8048004F604
:104B0000184000EB4510B7E70020B5E7989800087B
:104B10004552524F5200000025732025732C6C69BA
:104B20006E652025643A2073657373696F6E202566
:104B30006420697320627573790A0000A81F002041
:104B40004552524F523A206C6F67207072696E74F2
:104B5000657220696E6E6572206661756C740A00FC
:104B600070B504460D4641F21052105912591268A0
:104B7000D16A884729462046FFF748FB41F2105288
:104B8000105912591268516B884741F2105210594E
:104B900012591268116B884770BD00002DE9F0436F
:104BA00087B004460E4615461F46DDF83890642D42
:104BB00023DD4FF4FC701C4B1CA21EA10090274863
:104BC00003F008FF804608F1010058B1B8F5806F86
:104BD00008DA41F210510859095909684A6D002153
:104BE000904707E041F210510859095909684A6D88
:104BF0001BA1904707B0BDE8F0830FB1384600E035
:104C00001F4801214FF4FA72CDE90509CDE90321CE
:104C1000FE2000231A461946CDE901650090204682
:104C200002F004FE00BFE5E75A9500084552524FD6
:104C30005200000025732025732C6C696E652025B9
:104C4000643A20546F6F206D7563682064617461ED
:104C500020746F2073656E6400000000A81F0020A0
:104C60004552524F523A206C6F67207072696E74D1
:104C7000657220696E6E6572206661756C740A00DB
:104C8000FD650008014600201EE001F6184202EB17
:104C90004012126860F3040201F6184303EB40135C
:104CA0001A6001F6184202EB4012126822F020034B
:104CB00001F6184202EB40121360002301F618427D
:104CC00002EB40125360401C2028DED3002020E07D
:104CD000421C41F218030B4453F8303062F30403D2
:104CE00041F218020A4442F8303041F218020A44F4
:104CF00052F8302022F0600241F218030B4443F8CE
:104D00003020002241F218030B4403EBC0035A6029
:104D1000401C1F28DCD3704703B589B000200890E1
:104D200007900A984068B0F57C7F3CD30A984068A9
:104D30004FF4D671F14BF2A2CDE90010F2A1FE487A
:104D400003F048FE06900698401CB0B10698B0F5F6
:104D5000806F12DA099800F58050D0F810050590A0
:104D6000099800F58050D0F810050068406D0021CA
:104D70000490DDE90420904711E0099800F5805087
:104D8000D0F810050590099800F58050D0F810056E
:104D90000068406DE9A10490DDE9042090474FF0E0
:104DA000FF300BB000BD0A98007800F0030020B17E
:104DB000012873D0022872D1BCE2099800F5805016
:104DC000D0F810050690099800F58050D0F810052D
:104DD0000068C0690590DDE9051088470A980078E9
:104DE000C0F3800005900A98808880B204900599ED
:104DF000FDF74EF90246002106900998FFF706FEDE
:104E00000790079800284BD1099800F58050D0F8FA
:104E100010050690099800F58050D0F8100500683C
:104E2000006A0590DDE90510884740F2BB10B34BDE
:104E3000B3A2CAA10090C04803F0CCFD069006982A
:104E4000401CB0B10698B0F5806F12DA099800F5F1
:104E50008050D0F810050590099800F58050D0F8E2
:104E600010050068406D00210490DDE904209047A2
:104E700011E0099800F58050D0F8100505900998C8
:104E800000F58050D0F810050068406DABA104908B
:104E9000DDE9042090474FF0FF3082E799E0B7E367
:104EA0000998B0F8E8160798007800F01F000A9AF1
:104EB0001278C2F380020023CDE90032CDE902016D
:104EC0000A98808880B206900A98806805900798B2
:104ED0004068406804900146DDE90523099802F026
:104EE0000FFD0890089800284DD14FF4E170834BD6
:104EF00083A2A7A10090904803F06CFD069006984D
:104F0000401CB0B10698B0F5806F12DA099800F530
:104F10008050D0F810050590099800F58050D0F821
:104F200010050068406D00210490DDE904209047E1
:104F300011E0099800F58050D0F810050590099807
:104F400000F58050D0F810050068406D7BA10490FA
:104F5000DDE90420904707990998FFF7B3F909980C
:104F600000F58050D0F810050690099800F58050A3
:104F7000D0F810050068006A0590DDE90510884743
:104F80004FF0FF300DE707984068406801460690F3
:104F9000099802F0CFFE0998B0F8E806401C81B2EB
:104FA0000998A0F8E81607990998FFF78BF909986E
:104FB00000F58050D0F810050690099800F5805053
:104FC000D0F810050068006A0590DDE905108847F3
:104FD0005CE3099800F58050D0F810050690099818
:104FE00000F58050D0F810050068C0690590DDE933
:104FF000051088470A980078C0F3800005900A9849
:10500000808880B204900599FDF742F8024601219C
:1050100006900998FFF7FAFC07900798002849D1F5
:10502000099800F58050D0F810050690099800F511
:105030008050D0F810050068006A0590DDE9051081
:1050400088474FF4EB702D4B2DA244A100903A48B5
:1050500003F0C0FC06900698401CB0B10698B0F56D
:10506000806F12DA099800F58050D0F8100505908D
:10507000099800F58050D0F810050068406D0021B7
:105080000490DDE90420904711E0099800F5805074
:10509000D0F810050590099800F58050D0F810055B
:1050A0000068406D25A10490DDE9042090474FF091
:1050B000FF3076E60998B0F8E81607980069814253
:1050C00007D10998B0F8E806401C81B20998A0F809
:1050D000E8160998B0F8E8160798007800F01F0065
:1050E0000A9A1278C2F380020023CDE90032CDE99A
:1050F00002010A98808880B2069059E05E98000804
:105100004552524F5200000025732025732C6C69C4
:105110006E652025643A204552524F522C6C656EC4
:105120006774683D256C75206973206F7665722DF4
:1051300073697A65640A0000A81F00204552524F27
:10514000523A206C6F67207072696E7465722069C4
:105150006E6E6572206661756C740A002573202579
:10516000732C6C696E652025643A204552524F526B
:105170002C7468657265206973206E6F7420656E8B
:105180006F756768206D656D6F72790A00000000A9
:1051900025732025732C6C696E652025643A206583
:1051A0006E6372797074204552524F520A000000AB
:1051B0000A98806805900798406840680490014606
:1051C000DDE90523099802F09BFB08900898002868
:1051D00050D140F2E110FE4BAFF2DC02AFF25001D1
:1051E0000090FC4803F0F6FB06900698401CB0B116
:1051F0000698B0F5806F12DA099800F58050D0F863
:1052000010050590099800F58050D0F81005006849
:10521000406D00210490DDE90420904712E00998D8
:1052200000F58050D0F810050590099800F58050E1
:10523000D0F810050068406DAFF200110490DDE970
:105240000420904707990998FFF73CF8099800F562
:105250008050D0F810050690099800F58050D0F8DD
:1052600010050068006A0590DDE9051088474FF0D9
:10527000FF3096E50998B0F8E8160798016109989B
:10528000B0F8E806401C81B20998A0F8E8160A9820
:10529000C168079881600A9801690798C1600A98F7
:1052A0004088142802DD0A98418800E014210798FC
:1052B000006861F31F4007990860099800F5805065
:1052C000D0F810050690099800F58050D0F8100528
:1052D0000068C0680590DDE905108847079AC2E9B3
:1052E00006010798006820F4F860403007990860CC
:1052F0000798006820F4784000F50060079908607E
:1053000007984068406801460690099802F012FD2F
:10531000099800F58050D0F810050690099800F51E
:105320008050D0F810050068006A0590DDE905108E
:105330008847ABE1099800F58050D0F81005069039
:10534000099800F58050D0F810050068C0690590F4
:10535000DDE9051088470A980078C0F380000590C1
:105360000A98808880B204900599FCF791FE024665
:10537000202106900998FFF749FB0790079800281D
:105380004CD1099800F58050D0F810050690099886
:1053900000F58050D0F810050068006A0590DDE93E
:1053A0000510884740F2FF10894BAFF2AC22AFF2F4
:1053B00054210090874803F00DFB06900698401C8E
:1053C000B0B10698B0F5806F12DA099800F58050F8
:1053D000D0F810050590099800F58050D0F8100518
:1053E0000068406D00210490DDE90420904712E040
:1053F000099800F58050D0F810050590099800F53F
:105400008050D0F810050068406DAFF2D0210490B4
:10541000DDE9042090474FF0FF30C2E40998B0F86E
:10542000E81607980069814207D10998B0F8E806A4
:10543000401C81B20998A0F8E8160998B0F8E8066F
:105440000799097801F01F010A9A1278C2F38002C5
:105450000023CDE90032CDE902100A98808880B29D
:1054600006900A9880680590079840684068049004
:105470000146DDE90523099802F042FA08900898F0
:1054800000284FD140F20B20514BAFF28C3252A189
:105490000090504803F09EFA06900698401CB0B168
:1054A0000698B0F5806F12DA099800F58050D0F8B0
:1054B00010050590099800F58050D0F81005006897
:1054C000406D00210490DDE90420904712E0099826
:1054D00000F58050D0F810050590099800F580502F
:1054E000D0F810050068406DAFF2B0310490DDE9EE
:1054F0000420904707990998FEF7E4FE099800F503
:105500008050D0F810050690099800F58050D0F82A
:1055100010050068006A0590DDE9051088474FF026
:10552000FF303EE40998B0F8E81607980161099841
:10553000B0F8E806401C81B20998A0F8E8160A986D
:10554000C168079881600A9801690798C1600A9844
:105550004088142802DD0A98408800E0142007994A
:10556000096860F31F4107980160099800F58050B1
:10557000D0F810050690099800F58050D0F8100575
:105580000068C0680590DDE905108847079AC2E900
:1055900006010798006820F4F86040300799086019
:1055A0000A980078C1080798006861F3CF2007992E
:1055B000086007984068406801460690099802F024
:1055C000B9FB099800F58050D0F81005069013E05B
:1055D0005E980008A81F002025732025732C6C6995
:1055E0006E652025643A20656E637279707420457B
:1055F00052524F5200000000099800F58050D0F838
:1056000010050068006A0590DDE9051088473DE057
:105610000A98007800F0030040F21E211D4BAFF203
:105620002052CDE900101CA1234803F0D3F90690C5
:105630000698401CB0B10698B0F5806F12DA099850
:1056400000F58050D0F810050590099800F58050BD
:10565000D0F810050068406D00210490DDE90420B9
:10566000904712E0099800F58050D0F81005059099
:10567000099800F58050D0F810050068406DAFF231
:1056800044510490DDE90420904700BF00BF002092
:1056900078E400005E98000825732025732C6C695F
:1056A0006E652025643A20556E6B6E6F776E206DA7
:1056B0006F64653A25640A00A81F002070B504468F
:1056C0000D46164632462946204602F023FE29465C
:1056D0002046FEF7DBFD70BD7CB504460D464FF657
:1056E0000171681A8D424ED004DC45B1B5F57F4F8B
:1056F0007ED126E0012868D0FE28F9D189E040F269
:105700006920664B66A268A100906D4803F062F9BB
:105710000646701C58B1B6F5806F08DA41F2105198
:105720000859095909684A6D0021904707E041F27C
:1057300010510859095909684A6D62A19047012022
:105740007CBD4FF41B70554B66A268A100905C486D
:1057500003F040F90646701C58B1B6F5806F08DAC0
:1057600041F210510859095909684A6D00219047C2
:1057700007E041F210510859095909684A6D51A1D1
:1057800090470020DCE740F26F20444B55A264A113
:1057900000904B4803F01EF90646701C58B1B6F550
:1057A000806F08DA41F210510859095909684A6DA9
:1057B0000021904707E041F2105108590959096842
:1057C0004A6D40A190470020BAE740F27220334B67
:1057D00044A25FA100903A4803F0FCF80646701C12
:1057E00068B1B6F5806F0ADA41F21051085900E04D
:1057F00031E0095909684A6D0021904707E041F2FC
:1058000010510859095909684A6D2EA19047002086
:1058100096E740F27520214B32A258A1009028480B
:1058200003F0D8F80646701C58B1B6F5806F08DA58
:1058300041F210510859095909684A6D00219047F1
:1058400007E041F210510859095909684A6D1DA134
:105850009047002074E74FF41E70104B21A256A110
:10586000CDE90005164803F0B5F80646701C58B19E
:10587000B6F5806F08DA41F21051085909590968E4
:105880004A6D0021904707E041F21051085909592B
:1058900009684A6D0BA19047002051E7E197000885
:1058A000535441545553000025732025732C6C69C3
:1058B0006E652025643A20535543434553532E00CB
:1058C000A81F00204552524F523A206C6F6720703B
:1058D00072696E74657220696E6E6572206661759C
:1058E0006C740A004552524F520000002573202567
:1058F000732C6C696E652025643A2057726F6E6751
:1059000020656E636F6465204B65792C204163745C
:10591000697661746520616761696E2E0000000020
:1059200025732025732C6C696E652025643A205000
:105930006C65617365206F627461696E20636F6E60
:1059400074726F6C20616E642072657472792E00BF
:1059500025732025732C6C696E652025643A204ED2
:1059600065656420686967686572204C6576656C5A
:10597000206163636573732E00000000257320258A
:10598000732C6C696E652025643A20436865636BEF
:1059900020796F7572204861726477617265206347
:1059A0006F6E6E656374696F6E20616E64207265E0
:1059B0007472792E0000000025732025732C6C6909
:1059C0006E652025643A20556E6B6F776E204143DB
:1059D0004B20636F64653A20307825780000000022
:1059E0002DE9F04188B004460D4616464FF6FF708B
:1059F000A4F871060021C4F8731684F8971664277A
:105A00004FF00308002007900DB1284600E0094838
:105A1000CDE90378CDE90506012007A90022134648
:105A2000CDE9002102900221204601F0FFFE08B0DE
:105A3000BDE8F0813F7400082DE9FF4104460D46A2
:105A400017462868C0F30920103802287CD8286837
:105A5000C0F30920A0F1100205F10C0103A8FAF728
:105A600067FCBDF80C10204601F0E6FCBDF80C0008
:105A700009286AD2DFE800F00550732F94B5D6F9F3
:105A8000EE0040F29130C34BC3A2C5A10090CE48B6
:105A900002F0A0FF0646701C58B1B6F5806F08DA18
:105AA00041F210510859095909684A6D002190477F
:105AB00007E041F210510859095909684A6DC3A11C
:105AC0009047D4F8E30620B1D4F8E316204601F05D
:105AD000F6FEBDE8FF8140F29730AE4BAEA2C3495F
